:020000040800F2
:10000000D8560120C902000859340008B92A00084E
:1000100051340008B1090008414F000800000000F9
:10002000000000000000000000000000F93F000890
:10003000010B000800000000E93F0008C140000873
:10004000E3020008E3020008E3020008E3020008FC
:10005000E3020008E3020008E3020008E3020008EC
:10006000E3020008E3020008E3020008E3020008DC
:10007000E3020008E3020008E3020008E3020008CC
:10008000E3020008E3020008E3020008E3020008BC
:10009000E3020008E3020008E3020008E3020008AC
:1000A000E3020008E3020008E3020008E30200089C
:1000B000A1410008E3020008E3020008E30200088F
:1000C000E3020008E3020008E3020008E30200087C
:1000D000E3020008E3020008E3020008E30200086C
:1000E000590B0008E3020008E3020008E3020008DD
:1000F000E3020008E3020008E3020008E30200084C
:10010000E3020008E3020008E3020008E30200083B
:10011000E3020008E3020008E3020008E30200082B
:10012000E3020008E3020008E3020008E30200081B
:10013000990A0008E3020008E3020008E30200084D
:10014000E3020008E3020008E3020008E3020008FB
:10015000E3020008E3020008E3020008E3020008EB
:10016000E3020008E3020008E3020008E3020008DB
:10017000E3020008E3020008E302000800000000B8
:10018000E3020008E3020008E3020008E3020008BB
:10019000E3020008F13F0008E3020008E302000860
:1001A000E3020008E3020008E3020008E30200089B
:1001B000E3020008E3020008E3020008E30200088B
:1001C000E3020008E302000800000000E302000868
:1001D000E3020008E3020008E3020008E30200086B
:1001E000E3020008E3020008E3020008E30200085B
:1001F000E3020008E302000800F002F800F055F8FE
:100200000AA090E8000C82448344AAF10107DA4571
:1002100001D100F04AF8AFF2090EBAE80F0013F06E
:10022000010F18BFFB1A43F001031847C0BF0500B8
:10023000E0BF05000A4410F8014B14F00F0508BF99
:1002400010F8015B240908BF10F8014B6D1E05D0A2
:1002500010F8013B6D1E01F8013BF9D1641E03D07B
:10026000641E01F8015BFBD19142E4D370470000AA
:100270000023002400250026103A28BF78C1FBD8AF
:10028000520728BF30C148BF0B6070471FB516F03A
:100290002BFB9DE8030000F07BFA00F0B7F91FBDCF
:1002A00010B5002000F0AAFA10BD00F0D4FA1146F3
:1002B000FFF7ECFF16F0C0F900F00CFB03B4FFF7FA
:1002C000EFFF03BC00F03EFA0948804709480047A9
:1002D000FEE7FEE7FEE7FEE7FEE7FEE7FEE7FEE7F6
:1002E000FEE7FEE704480549054A064B7047000053
:1002F00089410008F9010008D8500120D856012092
:10030000D8520120D852012053EA020C00F0698033
:100310002DE9F04B4FF00006002B1FBFB3FA83F519
:1003200003FA05F424FA05F65E4012BF1643B2FA4A
:1003300082F502FA05F4C5F120051EBF22FA05FC7C
:1003400044EA0C04203556EA044C4FEA144418BF22
:10035000641C4FF000084FF00009904271EB030C51
:1003600039D3002919BFB1FA81F701FA07F6B0FABB
:1003700080F700FA07F6C7F120071EBF20FA07FC36
:1003800046EA0C062037B6FBF4FCA7EB0507103F46
:1003900007F01F0BCBF120062CFA06F60CFA0BFB2C
:1003A00044BFB3460026202FA4BF5E464FF0000B8B
:1003B0005BEA060C08BF4FF0010B19EB0B0948EB89
:1003C0000608ABFB027C06FB02CC0BFB03CCC01B7C
:1003D00071EB0C01C1E70B46024641464846BDE8B9
:1003E000F08B13B5084318BF4FF0FF300146AFF351
:1003F0000080BDE81C4070470B460146184600F0DF
:1004000078B900000EB5054614460E4613A000F05C
:1004100087F9284600F084F916A000F081F93046EB
:1004200000F07EF915A000F07BF900218DF80B108B
:100430000A210DF10A008DF80A1008E094FBF1F290
:1004400001FB124294FBF1F4303200F8012D002C34
:10045000F4DC00F065F900F041F900002A2A2A20B6
:10046000617373657274696F6E206661696C65642F
:100470003A2000002C2066696C6520002C206C69F5
:100480006E652000032A40F2308010F0030C00F06B
:10049000158011F8013BBCF1020F624498BF11F8BE
:1004A00001CB00F8013B38BF11F8013BA2F1040277
:1004B00098BF00F801CB38BF00F8013B11F00303EF
:1004C00000F02580083AC0F0088051F8043B083A53
:1004D00051F804CBA0E80810F5E7121D5CBF51F8F5
:1004E000043B40F8043BAFF30080D20724BF11F86F
:1004F000013B11F801CB48BF11F8012B24BF00F8D4
:10050000013B00F801CB48BF00F8012B704710B544
:10051000203AC0F00B80B1E81850A0E81850B1E8BC
:100520001850A0E81850203ABFF4F5AF5FEA027CFB
:1005300024BFB1E81850A0E8185044BF18C918C02B
:10054000BDE810405FEA827C24BF51F8043B40F8CC
:10055000043B08BF7047D20728BF31F8023B48BFB1
:1005600011F8012B28BF20F8023B48BF00F8012BEF
:1005700070474FF000020429C0F0128010F0030C05
:1005800000F01B80CCF1040CBCF1020F18BF00F886
:10059000012BA8BF20F8022BA1EB0C0100F00DB835
:1005A0005FEAC17C24BF00F8012B00F8012B48BF93
:1005B00000F8012B70474FF0000200B51346944637
:1005C0009646203922BFA0E80C50A0E80C50B1F1AB
:1005D0002001BFF4F7AF090728BFA0E80C5048BFBF
:1005E0000CC05DF804EB890028BF40F8042B08BF5D
:1005F000704748BF20F8022B11F0804F18BF00F859
:10060000012B7047704770477047000070B5064C6B
:100610007C44064D7D4404E0204601680844804740
:10062000241DAC42F8D170BD34BC05003CBC0500B3
:1006300070B5064600F08CF8056806F10B0020F056
:100640000704B4429CBF002070BD2B466A68BAB153
:100650001068A04210D304F1080188423CBF5068E2
:10066000586007D35168101941601168091B016077
:1006700058601460101D70BD13465268002AE7D1FF
:100680002146284600F070F80028DED170BD70B514
:100690000446051F00F05CF80068002C14BF446895
:1006A00070BD002C18BFAC423CBF20466468F8D334
:1006B00001680A18AA4218BF456003D12A68054696
:1006C0001144016028684119A1421CBF6C6070BDD3
:1006D0006168696021680844286070BD10B5002019
:1006E00000F0ADF8FFF7DCFDBDE81040012000F0A0
:1006F00029B82DE9F041074615460E461020FFF7B0
:1007000097FF04000AD06760C4E9026500F024F88E
:100710000168216004600020BDE8F0810120FBE752
:1007200010B5044602E0641C00F004F820780028AC
:10073000F9D110BD08B569468DF800000320ABBEA5
:1007400008BD000001491820ABBEFEE726000200EC
:1007500000487047C801002000487047F801002099
:10076000704770477047704738B504460A46002006
:100770006946AFF30080002808BF38BD02460099E3
:10078000204600F08DF8012038BD012000F0C8B8E7
:10079000F8B5AFF30080054600200C46102000BFDE
:1007A0000646A819A0420DD9324669460020AFF38B
:1007B0000080070008BF00F0B3F80098A04218BFFF
:1007C0000546C419FFF7C4FF05600746F01D20F079
:1007D00007004619284600F00AF8B44208BFF8BDE1
:1007E000A21B31463868BDE8F84000F059B8002136
:1007F0000160C0E901107047102070472DE9F041F9
:100800000646FFF7A9FF8046454613E016B1E068AB
:10081000B0420ED120682860D4E90101D8F80070F8
:1008200088472046FFF733FFD8F80000B842EBD1E5
:1008300000E025462C68002CE8D1BDE8F08110B519
:1008400000F056F8BDE8104000F04DB80048704781
:10085000C001002070477546FFF7F8FFAE4605005F
:100860006946534620F00700854618B020B5FFF7CB
:1008700039FDBDE820404FF000064FF000074FF073
:1008800000084FF0000BAC46ACE8C009ACE8C0096A
:10089000ACE8C009ACE8C00921F007018D467047FB
:1008A000034640688C46002818BF88423CBF034678
:1008B0004068F8D318681844884207D00CF1030048
:1008C00020F00700001D411A521A0146081D0A6057
:1008D000FFF7DDBE10B50446AFF300802046BDE84B
:1008E0001040FFF7EBBC002801D0FFF72BBF70478B
:1008F00010B5002102A000F01AF8012010BD000080
:10090000534947414252543A2041626E6F726D61C1
:100910006C207465726D696E6174696F6E000000A1
:1009200010B500F01DF8BDE81040FFF7DCBF70B552
:1009300005460C460A2000E06D1CFFF7FBFE35B1B2
:1009400028780028F8D102E0641CFFF7F3FE14B108
:1009500020780028F8D1BDE870400A20FFF7EABEF1
:1009600010B5012805D0002103A0FFF7E0FF01200A
:1009700010BD09A1F8E7000053494752544D454DB9
:100980003A204F7574206F662068656170206D6530
:100990006D6F7279000000003A2048656170206D2B
:1009A000656D6F727920636F727275707465640023
:1009B000FEE70000B0B5204A4CF24025136823F052
:1009C000010313601D4A4FF6F07314681C40AC42DB
:1009D00005D012681A404CF270239A4202D1184A8C
:1009E000126832B1184A012393609368002BFCD13E
:1009F0001AE0144A13686FF31F33B3F58A6F0DD0F2
:100A0000136840F283446FF31F33A34206D0126889
:100A100040F285436FF31F329A42E3D10B4A012320
:100A200093609368002BFCD110601068401AB0FAF4
:100A300080F04009B0BD00BF002000E000ED00E004
:100A4000002004E00010005C00300240004C02581E
:100A500080B545F204000722C4F20100016862F388
:100A60000B21016040F200404FF40071C4F202001B
:100A7000012200F071FC46F20C402021C4F2020079
:100A8000016044F60820C2F2010000210160BDE8C7
:100A9000804000F005B80000FFF7DABF000000005A
:100AA00045F2BC000021C2F20100017000F02CB838
:100AB0004EF6FC50CEF20000016821F0807101601A
:100AC000016841F08071016041F200004CF655610F
:100AD000CEF20000CCF2AC51C0F8B01F0021416052
:100AE000016821F001010160016841F0010101602C
:100AF00000BF00BF00BF4068B0FA80F040097047F7
:100B0000704700000000000010B584B043F2AC1044
:100B1000C2F2010000688469206881692046884724
:100B2000206881682046884790B1002002A9CDE95D
:100B300002002068C26820469047BDF80810BDF842
:100B40000C30BDF80A20BDF80E40009415F0CCFD25
:100B500004B010BD0000000080B54FF4005000F05C
:100B600013FB4FF40040BDE8804000F00DBB0000D7
:100B7000EFF3108072B600BFFEE700000000000037
:100B8000B0B50023C7F6FF73194205D04FF0010C32
:100B90004FF0010E07E000BF11F47F4F26D04FF059
:100BA000010E4FF0000C01234FEAF204032C06D88B
:100BB000DFE804F01202080EBCF1000F0CD0012097
:100BC000B0BD00BFBEF1000F06D00120B0BD00BF18
:100BD00013B10120B0BD00BF00684161816821F000
:100BE0001801114381600020B0BD00BF0B0607D47F
:100BF0004B06CBD04FF0000C4FF0000E0023D3E794
:100C000001234FF0000C4FF0000ECDE70000000074
:100C100010B5C8B10446407F20B900202077204697
:100C200000F036F802206077207978B1D4E902121A
:100C30002046FFF7A5FF00281CBF012010BD6079EA
:100C400088B1206911E000BF012010BD206841F685
:100C5000B751C0F2C1414161816821F01801816042
:100C600060790028EDD14FF0FF302168D4E90523E9
:100C70000861886820F0600010438860886820F070
:100C800080001843886001206077002010BD0000BC
:100C900081B043F630010068C4F20201A1F503629D
:100CA000904201D001B07047086840F4805008605D
:100CB000086800F480500090009801B07047000070
:100CC000B0B5044600F050FB40F240110546C2F2B8
:100CD0000001621C097818BF0C4400BF00F044FBFF
:100CE000401BA042FAD3B0BD70B582B0002841D0FD
:100CF0000446D0F8840028B92320C4F88400204694
:100D000000F022F943F644004FF48056C4F202008A
:100D1000016841F480410160006800F48040019066
:100D200043F604000199C4F20100016821F40001B6
:100D300001602168A26803681A430260006888594C
:100D400040F00100885100F00FFB054620688159F2
:100D5000C90713D000F008FB401BB0F5FA7FF5D9A6
:100D60000120E0220421C4F88810C4F8842002B0D5
:100D700070BD00BF012002B070BD00BF48F20F126D
:100D80000168CFF62072114001F59C4101600568B1
:100D90000120FFF795FF20684FF6417205608169D9
:100DA00011408031816185690120FFF789FF20684A
:100DB00041F2180143F623738561CFF6DE034258F2
:100DC0001A4042F0087242F0040242504558012095
:100DD000FFF776FF20684FF4805600F580518D6153
:100DE00042F28001C0F2C121815185590120FFF7F3
:100DF00067FF2068E268002100F5805C855144F2BD
:100E0000F855116051609160D160A261136843F49C
:100E10008013136002F12803D360166846F440067D
:100E200016609162D16211635163E361936A43F486
:100E30008013936202F150035363966A46F44006AE
:100E40009662116551659165D1652362136D43F416
:100E50008013136502F17803D365166D46F44006DE
:100E600016659167D167C2F88010C2F8841063627A
:100E7000936F43F480139367C2F88420936F43F415
:100E800040039367A1624FF00043CCF81020226921
:100E9000116051609160D160C2E908111360556022
:100EA000566826F000465660A26402F12806D66015
:100EB0009162D16211635163C2E912119362D562EA
:100EC000D06A20F00040D062E66402F15000506326
:100ED000116551659165D165C2E91C1113655565B0
:100EE000566D26F000465665206502F17800D06503
:100EF0009167D167C2F88010C2F88410C2E9261148
:100F00009367D567D36F23F00043D367606548F2DA
:100F10004003C2F88420C4F202032166C4E91A1116
:100F2000C4E91611CCF80C20606882881A6010227F
:100F3000006858600020C4F88810C4F8842002B00B
:100F400070BD0000000000002DE9F04385B048F2BC
:100F500000010068C4F20201884203D005B0BDE878
:100F6000F08300BF43F630000024C4F20200C4F254
:100F700002046D464FF0020801684FF0000941F08D
:100F8000007101600168032601F000710091009971
:100F9000016841F08061016001680B2701F0806108
:100FA00000910099016841F000610160016801F061
:100FB000006100910099016841F00401016001683D
:100FC00001F0040100910099016841F00101016004
:100FD000016801F0010100910099016841F00201EE
:100FE0000160016801F0020100910099016841F07F
:100FF000400101600068294600F040000090009820
:101000003220009004F50060CDF80480CDF80890FF
:101010000396049700F0C4F8862029468DE8010362
:101020002046CDE9036700F0BBF84FF40050294695
:101030008DE8010304F58060CDE9036700F0B0F8A6
:101040004FF4205029468DE8010304F5C050CDE946
:10105000036700F0A5F805B0BDE8F08300000000CC
:101060002DE9F04141F2040840F22027CEF20008B9
:10107000C2F20007D8F80000D7E901120E29A0EB50
:101080000200386124D1798840F6B87221F4005109
:1010900091424FF000027A600AD040F6BC72914251
:1010A00010D13988013139808AB2642A06D90DE01D
:1010B0003988013939808AB2642A07D8090407D1EE
:1010C000002104E039888AB2642AF7D96421398082
:1010D000796940F200448842C4F202040CD98021AC
:1010E00001222046012600F037F90020C8F8000050
:1010F000C7E9020004E000BFF868B0FA80F04609D2
:1011000004F540654FF40041284600F01DF9B6B1E2
:10111000012814D178680122C0F10F017B8802FAFE
:1011200001F101301943798078604FF48041FA6011
:101130000122D8F80000B860204600F00DF94FF405
:1011400000412846FE6800F0FFF8002E0CBF002882
:10115000BDE8F08178680122C0F10F017B8802FAB6
:1011600001F1013023EA0101798078604FF4804178
:10117000FA600122D8F80000B8602046BDE8F041CE
:1011800000F0EAB80000000043F61441C4F2010187
:101190000A68024208BF70470860FFF761BF00009D
:1011A0002DE9F04F82B000F13E420A2302F1FF77B1
:1011B00042F20042C4F2020243F6004B90424FEA70
:1011C000B72208BF0923092AC4F2010B38BF4FEA2E
:1011D000B72300244FF0010E00270026009306E0FD
:1011E00001360437102E04F1020400F0A9800EFA33
:1011F00006F80B6813EA080FF2D0D1F804A0032216
:101200000AF0030C02FA04F5ACF101036FEA0509D8
:10121000012B0FD88368CD6803EA0903A5402B434F
:101220008360CAF30015436823EA0803B5402B43E3
:10123000436005E0BCF1030F02D14FF0030C22E044
:10124000C3688D6803EA0903A540BCF1020F43EAB5
:101250000503C36017D16FF003020F2502EA56039E
:1012600007F01C02034405FA02FAD3F820C00D6906
:101270002CEA0A0C05FA02F242EA0C021A62D1F8D0
:1012800004A00AF0030C02680CFA04F302EA090253
:101290001AF4403F42EA03020260A1D043F644033D
:1012A0004FF60849C4F20203CFF6FF790F251A68FA
:1012B00042F480421A601A6826F0030302F4804266
:1012C00001920BEB0302019B07F00C0352F809C0DB
:1012D0009D402CEA050C009D05FA03F343EA0C033C
:1012E00042F80930DBF808C04B684CEA0805DA021E
:1012F00058BF2CEA080543F60C499A02C4F20109CA
:10130000CBF80850D9F800C04CEA080558BF2CEAC1
:1013100008059A03C9F80050DBF804C04CEA080538
:1013200058BF2CEA0805DB03CBF80450DBF800209B
:1013300042EA080558BF22EA0805CBF800504FE7FB
:1013400002B0BDE8F08F00000069084018BF01201E
:101350007047000000000000002A08BF09048161F6
:10136000704700000000000045F2D000C2F201000A
:10137000006870470000000040F2401045F2D001C4
:10138000C2F20000C2F2010100780A68104408604D
:10139000704700000000000080B5032000F08CF8CA
:1013A000002000F005F800F027F8002080BD0000C4
:1013B00070B540F2401640F2B811C2F20006C2F217
:1013C00000014FF47A73044632780968B3FBF2F2F5
:1013D000B1FBF2F1084600F0DFFF0F2C4FF00105E2
:1013E00008D838B94FF0FF3000222146002500F020
:1013F00033F87460284670BD82B043F64000C4F2F2
:101400000200016841F080510160016801F08051E3
:1014100001910199416841F480414160406800F4C4
:1014200080400090009802B070470000000000006B
:10143000002848BF7047C1B24EF20012CEF200023F
:1014400000F01F0042EAD101012221F0030102FA5B
:1014500000F008607047000070B54EF60C5C4FF06D
:10146000FF36CEF2000C00F1604505F56445DCF86E
:101470000030C3F3022E8EF00703042B28BF042391
:10148000BEF1030406FA03F321EA030100F00F039F
:1014900038BF0024043B0028634406FA04F048BF28
:1014A00003F10C05A14022EA000008430001287066
:1014B00070BD0000000000004EF60C514FF6FF0317
:1014C000CEF200010A681A4060F30A2242F08060FE
:1014D00040F0FD700860704701680122C0F80025E7
:1014E000002280F8F424886940F000608861486D2B
:1014F00040F08052002042F003024A65704700002D
:101500002DE9F04F8BB0002800F085800446056877
:1015100090F8BD0428B9002084F8BC04204600F0EF
:1015200093F8032084F8BD04E86BC00501D40020C3
:101530002061206803F0C8FC20680A9004F1040EC2
:1015400004F11C0AD4E90C509EE80E589AE8C00732
:10155000CDE9085003A88DE8005880E8C0070A9834
:1015600003F066F9002853D120680021002503F01C
:10157000B3FC616871B301200023002203EBC303B5
:1015800004EB8307D3B287F83C200132A7F844303C
:10159000D3B287F83D00994287F84050BD64FD649E
:1015A0007D65EBD800200023002200BF03EBC303BE
:1015B00004EB830787F87C220132D3B287F87D02DF
:1015C000994287F88002C7F88802C7F88C02C7F8EA
:1015D0009402EBD804F1140E04F1240A2268A068E6
:1015E0000A90D4E903379EE840589AE80007D4E906
:1015F0000C50CDE9085002A8CDE9007680E80058EB
:1016000005A880E8000710460A9A03F011FA38B1DD
:10161000022084F8BD0401200BB0BDE8F08F00BFAC
:10162000002084F83800012084F8BD04606A012895
:1016300002D12046FFF750FF206803F0E9F90020AF
:101640000BB0BDE8F08F0000F0B5ABB002A90446C6
:10165000081D8C21FEF7AFFF2068B0F1A04F01D02C
:101660002BB0F0BD4FF40010029002A800F088F8F3
:1016700008B1FFF77DFA43F630060024C4F20206F3
:10168000C4F2020426AD00273068294640F001006C
:101690003060306800F00100269026984FF4E85042
:1016A000269002202790032029900A202A90204685
:1016B0002897FFF775FD4FF400702946CDE92607FE
:1016C00020462897FFF76CFD706840F0800070603E
:1016D000706800F0800001900198706940F48040CB
:1016E0007061706900F48040009000982BB0F0BDEC
:1016F000B0B582B043F6400047F20005C4F20200E4
:10170000C4F20005016841F080510160006800F0FA
:10171000805001900198286840F480302860FFF7DD
:1017200023FE04466868C00306D4FFF71DFE001BB5
:10173000B0F57A7FF6D910E0286840F400302860D0
:10174000FFF712FE044600BF6868800308D4FFF765
:101750000BFE001BB0F57A7FF6D9032002B0B0BDB6
:10176000002002B0B0BD000047F20000C4F200004B
:10177000016841F4807101607047000000000000C2
:101780002DE9F04782B0D0F800A043F69006044659
:101790005FEACA70C4F202061AD14FF000095FEA8C
:1017A0000A3028D556F8040CE16B20F44010B1F54E
:1017B000801F40EA010046F8040CB1FA81F04FEABC
:1017C000501808BF4FF001095FEACA2018D429E079
:1017D00056F8880C20F4000046F8880C606B56F828
:1017E000881C014346F8881CB0FA80F04FEA501973
:1017F0005FEA0A30D6D44FF000085FEACA2011D55C
:1018000056F8040C216C20F44000B1F5800F40EA3A
:10181000010008BF4FF00109002908BF4FF001087F
:1018200046F8040C5FEA8A6057465CD556F8500CBF
:1018300047F2000740F0805046F8500CC4F2000711
:1018400056F8500C00F0805001900198386840F430
:1018500080703860FFF788FD054600BF3868C00516
:1018600006D4FFF781FD401B6428F7D958E200BF7A
:1018700056F8200C10F440701BD0216B01F440711D
:10188000884216D056F8200C56F8201C41F48031BE
:1018900046F8201C56F8201C20F4407021F48031BA
:1018A00046F8201C46F8200C56F8200CC00740F0E3
:1018B0003B824FF6FF432768206B56F8882CC0F612
:1018C000FF7300F4407122F4F81203406FF31F30ED
:1018D000B1F5407F08BF1A4346F8882C56F8201C03
:1018E000084346F8200CF80638D4780444D4380469
:1018F0004AD4F80350D4B80356D478065CD43806DA
:1019000062D4F80568D4B8056ED4780575D4380566
:101910007CD4F80400F18380B80400F18980780257
:1019200000F18F80B80200F19580780300F1A1806A
:10193000380200F1A780780100F1AE80380100F193
:10194000B580F8000AF0807000F1BE80002808BF62
:10195000B9F1000F40F0E480C4E000BF56F8040C79
:1019600020F0807046F8040CA06B56F8041C084365
:1019700046F8040C7804BAD53068616E20F4403023
:10198000084330603804B4D53068A16E20F440209C
:1019900008433060F803AED53068E16E20F44010A3
:1019A00008433060B803A8D53068216F20F44000A8
:1019B000084330607806A2D53068616C20F00300DF
:1019C0000843306038069CD53068A16C20F00C00CC
:1019D00008433060F80596D53068E16C20F030009F
:1019E00008433060B80590D53068216D20F0C00004
:1019F0000843306078057FF58AAF3068616D20F468
:101A000040700843306038057FF583AF3068A16DC2
:101A100020F4406008433060F8047FF57DAF306803
:101A2000E16D20F4405008433060B8047FF577AF93
:101A30003068216E20F440400843306078027FF522
:101A400071AF3068A16F20F0806008433060B80249
:101A50007FF56BAF3068E16F20F00060B1F1006F8F
:101A600040EA010008BF4FF00108306078037FF5BD
:101A70005FAF3068616F20F040700843306038021B
:101A80007FF559AF3068D4F8801020F080500843BB
:101A9000306078017FF552AF3068D4F8841020F0C0
:101AA00000500843306038017FF54BAF56F8040C06
:101AB000D4F8881020F00070084346F8040CF800B1
:101AC0000AF080707FF542AF56F8041CD4F88C20E1
:101AD00021F08061114346F8041C002808BFB9F1C9
:101AE000000F1DD117F000701AD117F0080008BFC1
:101AF000B8F1000F00F0A68056F8900C20F080504E
:101B000046F8900CFFF730FC054600BF56F8900CE5
:101B1000800029D5FFF728FC401B6428F6D9FFE098
:101B200056F8900C20F0806046F8900CFFF71CFCF3
:101B3000054600BF56F8900C000105D5FFF714FCD0
:101B4000401B6428F6D9EBE02068C10702D0616B26
:101B500000297BD0010340F18D80E16BB1F5801F3E
:101B600040F088808CE000BF2068010301D5E16B64
:101B700019B1C1021ED5216CE1B956F8081C56F8FE
:101B8000082C01F4403102F0E04263691144A2697B
:101B900041EA8311A76A41EA026146F8081C56F837
:101BA000041C6FF0FF0221F4F85102EB07221143ED
:101BB00046F8041C810214D5E16FB1F1006F10D119
:101BC00056F8081C56F8082C01F0706102F0E0424B
:101BD0006369276A114441EA831141EA074146F8E3
:101BE000081C000718D556F8080C56F8081C00F019
:101BF000706001F4403162690844E16940EA821092
:101C0000E36A40EA017046F8080C56F8040C20F428
:101C10004030184346F8040C56F8900C40F08050C1
:101C200046F8900CFFF7A0FB044600BF56F8900C56
:101C3000800007D4FFF798FB001B6528F6D303202C
:101C400084E000BF002002B0BDE8F08756F80C1C0D
:101C500056F80C2C01F4403102F07062D4E90135E1
:101C6000114441EA831141EA057146F80C1C010355
:101C70003FF573AFC1021DD5216CB1F5800F19D1AD
:101C800056F80C1C56F80C2C01F4403102F0E042DE
:101C900063681144E26841EA8311656A41EA0261BE
:101CA00046F80C1C56F8041C6A1E21F01F01114353
:101CB00046F8041CC10110D556F80C1C56F80C2C23
:101CC00001F0706102F0E04263682569114441EA65
:101CD000831141EA054146F80C1C80010CD560686F
:101CE000A368D4E90321090441EA801040EA0260B4
:101CF00040EA037046F80C0C56F8900C40F08060F7
:101D000046F8900CFFF730FB054600BF56F8900CE4
:101D100000013FF5EAAEFFF727FB401B6428F5D929
:101D2000032002B0BDE8F087FFF71EFB054641F235
:101D3000883700BF56F8200C80073FF5BAADFFF793
:101D400013FB401BB8424FF00300F3D902B0BDE8CB
:101D5000F0870000000000002DE9F041002800F0AD
:101D6000898043F608080446C4F202080D46D8F8F4
:101D7000F80300F00F0088420CD2D8F8F80320F0E6
:101D80000F002843C8F8F803D8F8F80300F00F0054
:101D9000A8426FD12068810717D5410705D5D8F82B
:101DA000001041F4E051C8F80010010705D5D8F83B
:101DB000001041F46041C8F80010D8F80010A26883
:101DC00021F0F0011143C8F80010C0073AD1D8F84B
:101DD000F80300F00F00A8420CD9D8F8F80320F05F
:101DE0000F002843C8F8F803D8F8F80300F00F00F4
:101DF000A8423FD12068410707D5D8F80010E26813
:101E000021F4E0511143C8F80010000708D5D8F8B4
:101E10000000216920F4604040EAC100C8F80000D9
:101E2000D8F8000000F00C0142F200400829C0F28E
:101E3000F4003FD004295FD141F20020C0F27A00C3
:101E40005AE000BF6068022808D001280ED158F877
:101E5000081C890312D40120BDE8F08158F8081C41
:101E600089010BD40120BDE8F08100BF58F8081C9F
:101E7000890703D40120BDE8F08100BFD8F8001025
:101E800021F003010843C8F80000FFF76DFA064689
:101E900041F28837D8F80000616800F00C00B0EB20
:101EA000810F94D0FFF760FA801BB842F2D903206B
:101EB000BDE8F08158F8041C58F8043C58F8047C3C
:101EC00001F03F025902C7F3881105D4A1FB0001BC
:101ED0000023FEF719FA06E041F20020C0F27A0072
:101EE0004843B0FBF2F058F8041C0222C1F3014150
:101EF00002EB4101B0FBF1F0D8F8001046F64412B5
:101F0000C0F60102C1F30311515C40F24412C2F267
:101F10000002C84040F2B811C2F200010860106827
:101F2000FFF746FA0020BDE8F08100000000000045
:101F300040F2B810C2F200000068704700000000D4
:101F400040F2B81043F60801C2F20000C4F20201E8
:101F500046F6541200680968C0F60102C1F38221F6
:101F6000515CC8407047000040F2B81043F60801C9
:101F7000C2F20000C4F2020146F654120068096879
:101F8000C0F60102C1F34231515CC8407047000005
:101F900010B543F60404C4F20204606800F00C01BA
:101FA00042F200400829C0F2F40007D0042918BF0B
:101FB00010BD41F20020C0F27A0010BD22682368F3
:101FC000216802F03F025B02C1F3881106D4A1FB35
:101FD00000010023FEF798F907E000BF41F200205E
:101FE000C0F27A004843B0FBF2F021680222C1F34C
:101FF000014102EB4101B0FBF1F010BD0000000017
:102000002DE9F04182B000286ED00446007843F6F6
:102010000006C007C4F202060BD0B06800F00C0046
:10202000042840F09F803068800302D56068002853
:102030005AD0207880071AD5B06810F00C0F09D05C
:10204000B06800F00C00082840F0AA8070684002D8
:1020500000F1A6803068800702D5E068012843D1EE
:102060003068216920F0F80040EAC1003060207833
:1020700000073DD4207840074ED4A56985B3B068E9
:1020800000F00C00082840F0BF80012D70682BD0B4
:1020900000F48001E269914226D100F03F01226AFA
:1020A000914221D147F6C071626A0140B1EB821FB3
:1020B0001AD1A16A4FF6FF72C903914300F440326E
:1020C000A1F580318A420FD1E16A00F07062B2EB73
:1020D000016F09D1216B00F0E040B0EB017F03D12B
:1020E000002002B0BDE8F081012002B0BDE8F0811F
:1020F00060690028706F77D040F001007067FFF7CB
:1021000033F90546706F8007B4D4FFF72DF9401BF3
:102110000228F7D915E100BF306C10F0805808D1C3
:10212000306C40F080503064306C00F08050019092
:10213000019847F20007C4F200073868C00543D48D
:10214000386840F480703860FFF70EF9054600BF2C
:102150003868C00538D4FFF707F9401B6428F7D961
:10216000EFE000BFB06800F00C00082803D17068F1
:1021700040023FF558AF6068002800F0B580B0F528
:10218000A02F00F0C980B0F5803F00F0C980306812
:1021900020F480303060306820F48020C3E000BF3D
:1021A000E0680028306851D040F001003060FFF74F
:1021B000DBF80546306880073FF552AFFFF7D4F8EB
:1021C000401B0228F6D9BCE0A068002850D00528A2
:1021D00068D001286AD0306F20F001003067306F7E
:1021E00020F0040065E000BF20F001007067FFF7F9
:1021F000BBF80546706F80077FF53CAFFFF7B4F87A
:10220000401B0228F6D99CE0306820F080703060D6
:10221000FFF7AAF8022D05460CD100BF30688001F7
:1022200040F19480FFF7A0F8401B02284FF0030014
:10223000F4D956E7306880017FF552AFFFF794F884
:10224000401B02284FF00300F4D94AE720F00100B8
:102250003060FFF789F80546306880077FF507AFE3
:10226000FFF782F8401B02284FF00300F4D938E74B
:10227000306F20F001003067306F20F004003067CD
:10228000FFF772F8054641F2883700BF306F8007CC
:1022900020D5FFF769F8401BB8424FF00300F5D98D
:1022A0001FE700BF306F40F004003067306F40F030
:1022B00001003067FFF758F8054641F2883700BF44
:1022C000306F800706D4FFF74FF8401BB842F7D9AC
:1022D00037E000BFB8F1000F7FF4CFAE306C20F0D4
:1022E00080503064C9E600BF306820F48030306030
:1022F000306820F480203060FFF736F8054600BFD4
:10230000306880037FF595AEFFF72EF8401B6428F8
:102310004FF00300F4D9E4E6306840F480203060E8
:10232000306840F480303060FFF71EF8054600BF8B
:10233000306880033FF57DAEFFF716F8401B642838
:10234000F6D9032002B0BDE8F08100BF04F11C07FC
:10235000256B8FCF0843D9034FF6FF7340EA8210F5
:10236000994340EA0760A1F58031084340EA0570CF
:102370007060306840F080703060FEF7F5FF044612
:10238000306880013FF5ACAEFEF7EEFF001B02287F
:102390004FF00300F4D9A4E6411E0020B0EB116F0A
:1023A00002D00120704700BF4EF21002F023CEF29F
:1023B000000251604EF62351CEF200010B7007214E
:1023C000906011607047000070470000000000003E
:1023D000704700000000000070470000000000008F
:1023E000B0B590F83C20012A4FF002025BD080F893
:1023F0003D2040F2004C0268C4F2010C42F48063BC
:1024000063455368D2F808E002BF23F470034C68B8
:10241000234341F2FF740D68C4F2000423F07003FB
:10242000A24243EA050353600CDC40F2FF73C4F29E
:1024300000039A4216DCB2F1804F29D040F20043EB
:1024400018E000BF40F2FF33C4F201039A4217DCE8
:1024500041F60003C4F200039A4219D00023C4F2EB
:10246000010309E040F60003C4F200039A420FD0D2
:1024700040F60043C4F200039A4209D00DE000BFC9
:1024800044F20003C4F201039A4201D0624504D130
:102490002EF080038968194391600022012180F8A1
:1024A0003D1080F83C201046B0BD00000000000048
:1024B00060B310B5044690F83D0028B9002084F8B8
:1024C0003C00204600F024F8022084F83D002068FB
:1024D000211D01F06DFE012084F8480084F83E00C3
:1024E00084F83F0084F8400084F8410084F84200FA
:1024F00084F8430084F8440084F8450084F84600DA
:1025000084F8470084F83D00002010BD012070478A
:1025100080B582B00068B0F1804F1CBF02B080BDB2
:1025200043F640000022C4F20200016841F00101BC
:1025300001600068002100F00100019001981C205A
:10254000FEF78AFF1C2002B0BDE88040FEF770BF96
:1025500090F83D1001291BD1022180F83D1001683F
:1025600041F2FF70C4F200008142C86840F00100EF
:10257000C8600FDC40F2FF70C4F20000814217DC3B
:10258000B1F1804F2CD040F20040C4F2000025E0B1
:102590000120704740F2FF30C4F20100814213DC99
:1025A00041F60000C4F20000814219D0002013E07F
:1025B00040F60000C4F20000814211D040F6004015
:1025C000C4F200000AE000BF44F20000C4F20100BF
:1025D000814205D040F20040C4F2010081420BD19B
:1025E00007228868C0F2010202400020062A18BFB4
:1025F000B2F5803F00D17047086840F001000860E4
:10260000002070470000000080B590F83C20012AAF
:102610004FF0020269D080F83D208822D0F800C037
:10262000CFF6FE72DCF808301A40CCF808200B68B0
:102630004F2B29DC1F2B45DD202B18BF302B44D01E
:10264000402B40F0AD80D1F804E0C968DCF82030C0
:10265000DCF8202022F00102CCF82020DCF8182041
:1026600022F0F00242EA011123F00A02CCF818101D
:1026700042EA0E01CCF82010DCF8081041F04701C6
:1026800021F0300128E000BF6F2B31DDB3F5005F92
:1026900052D0B3F5805F21D0702B40F08180D1E91A
:1026A00001E3C968DCF8082043EA0E0322F47F4204
:1026B00043EA01211143CCF80810DCF8081041F07E
:1026C000770109E00BB1102B6AD1DCF8081021F07A
:1026D0007001194341F00701CCF8081000220121D4
:1026E00080F83D10002180F83C10104680BD00BFEE
:1026F000502B35D0602B53D1D1F804E0C968DCF8F9
:10270000203023F01003CCF82030DCF81830DCF84F
:10271000202023F4704322F0A00243EA0131CCF8D8
:10272000181042EA0E11CCF82010DCF8081041F025
:10273000670121F01001CFE7D1E901E3C968DCF8B6
:10274000082043EA0E0322F47F4243EA01211143A9
:10275000CCF80810DCF8081041F48041BCE700BF59
:10276000D1F804E0C968DCF82030DCF8202022F041
:102770000102CCF82020DCF8182022F0F00242EA16
:10278000011123F00A02CCF8181042EA0E01CCF82D
:102790002010DCF8081041F0570121F020019BE7E0
:1027A00001229CE7000000007047000000000000CC
:1027B00010B5044600680169890744BFC1685FEA33
:1027C00081713FD40169490744BFC1685FEA417123
:1027D00044D40169090744BFC1685FEA01714BD461
:1027E0000169C90644BFC1685FEAC16150D401698B
:1027F000C9071CBFC1685FEAC17157D101690906E9
:1028000044BFC1685FEA016158D40169C90544BF8A
:10281000C1685FEA016159D40169490644BFC168D2
:102820005FEA41615AD40169890646BFC1685FEA1F
:10283000816110BD6FF0200101612046BDE81040AC
:10284000FFF7CABD6FF002010161012121778069A4
:1028500080074BD02046FFF7A7FF4DE06FF0040143
:10286000016102212177806910F4407F48D0204621
:10287000FFF79AFF4AE000BF6FF0080101610421F1
:102880002177C069800745D02046FFF78DFF47E0DC
:102890006FF01001016108212177C06910F4407FB9
:1028A00042D02046FFF780FF44E000BF6FF00101F7
:1028B0000161204600F04CF820689FE76FF080012E
:1028C00001612046FFF784FD20689EE76FF4807168
:1028D00001612046FFF778FD20689DE76FF0400119
:1028E0000161204600F03CF820689CE7204600F09B
:1028F00027F8204600F028F800202077206861E7BC
:10290000204600F01DF8204600F01EF80020207739
:1029100020685EE7204600F013F8204600F014F827
:102920000020207720685BE7204600F009F8204669
:1029300000F00AF800202077206858E70000000027
:102940007047000000000000704700000000000019
:102950000068B0F1804F18BF704713F0E1BE00006F
:102960007047000000000000B0B582B0A0B104467E
:10297000C06F28B9002084F87800204600F058F88D
:102980002420E0672068016821F0010101602046F1
:1029900001F01EFD012803D1012002B0B0BD00BF2F
:1029A000606A10B1204601F0A3FC2068416821F460
:1029B00090414160816821F02A018160016841F005
:1029C000010101600020C4F88400FEF7CDFC2168FD
:1029D00005460A6812070BD54FF4001100226FF06C
:1029E0007E40009020462B4601F012FE70B921680F
:1029F000086840070ED54FF4800100226FF07E403A
:102A0000009020462B4601F003FE18B1032002B0CF
:102A1000B0BD00BF2020E067C4F880000020206621
:102A2000606684F8780002B0B0BD000000000000CD
:102A3000B0B5AAB0044601A844F6000504308C21C4
:102A4000C4F20005FDF7B7FD2068A84202D02AB005
:102A5000B0BD00BF4FF48070019001A8FEF790FE5A
:102A600008B1FEF785F843F63000C4F202000169B0
:102A700041F480210161016901F4802125912599AA
:102A8000016841F008010160006825A900F0080014
:102A9000259025984FF44070259002202690002024
:102AA0002790032028900720299005F5E230FEF7B3
:102AB00077FB2AB0B0BD0000FEE700000000000078
:102AC00010B582B045F200000022C4F2010000F50A
:102AD0003844016841F04001016040212046FEF782
:102AE0003BFC0A20FEF7ECF8402101222046FEF7CD
:102AF00033FC0A20FEF7E4F847F69C34EF20C0F6DA
:102B000001040322A11C00F0D7F8E11DCF2003220D
:102B100000F0D2F804F10C01ED20042200F0CCF812
:102B200004F11201E820032200F0C6F804F11701B5
:102B3000CB20052200F0C0F804F11E01F72001228D
:102B400000F0BAF804F12101EA20022200F0B4F802
:102B500004F12501C020012200F0AEF804F12801A3
:102B6000C120012200F0A8F804F12B01C5200222A7
:102B700000F0A2F804F12F01C720012200F09CF818
:102B800004F132013620012200F096F804F13501FB
:102B90003720012200F090F804F138013A20012298
:102BA00000F08AF804F13B01B120022200F084F821
:102BB00004F13F01B620032200F07EF804F1440145
:102BC000F220012200F078F804F1470126200122CA
:102BD00000F072F804F14A01E0200F2200F06CF8D6
:102BE00004F15B01E1200F2200F066F804F16C01B2
:102BF0001120002200F060F80A20FEF761F804F1CD
:102C00006E012920002200F057F80A20FEF758F83C
:102C100028208DF807000DF107013620012200F071
:102C20004BF802B010BD000070B540F200440546FC
:102C3000C4F2020445F208064FF400710022204657
:102C4000C4F20106FEF788FB04F580604FF40071C2
:102C50000022FEF781FB4FF4007100222046FEF7B0
:102C60007BFB3068800709D4306880075CBF306820
:102C70005FEA807002D430688007F2D535717068E1
:102C80003068000609D53068000644BF30685FEA46
:102C9000006002D530680006F2D44FF400710122C2
:102CA0002046FEF759FB4FF4007101222046BDE893
:102CB0007040FEF751BB00002DE9F04381B040F2B7
:102CC00000481546C4F202080E46814645F2080443
:102CD0004FF4007100224046C4F20104FEF73CFBB1
:102CE00008F580674FF4007100223846FEF734FB88
:102CF0004FF4007100224046FEF72EFB206880074B
:102D000009D4206880075CBF20685FEA807002D425
:102D100020688007F2D584F8049060682068000677
:102D200009D52068000644BF20685FEA006002D52C
:102D300020680006F2D44FF4007101224046FEF7ED
:102D40000BFB4FF4007101223846FEF705FB4FF4F0
:102D5000007100224046FEF7FFFA2DB3002100204B
:102D600004E000BF013081B2A9421DD2715C22682B
:102D7000920709D4226892075CBF22685FEA8272D8
:102D800002D422689207F2D5217161682168090690
:102D9000E8D52168090644BF21685FEA0161E1D5F1
:102DA00021680906F2D4DDE74FF4007101224046A4
:102DB000FEF7D2FA4FF400710122404601B0BDE89F
:102DC000F043FEF7C9BA000070B582B002440C4669
:102DD000511E020A8DF80420E21801AD8DF805009D
:102DE000080A8DF80600561E8DF807102A200422C6
:102DF0002946FFF761FF200A8DF80400300A8DF89C
:102E000006002B20042229468DF805408DF8076026
:102E1000FFF752FF02B070BD2DE9F04F0C6894FA35
:102E2000A4F2B2FA82F234FA02F36BD04FF0010A44
:102E30004FF0030B0BE000BFD1E900470668AF403D
:102E400033403B430360013234FA02F35AD00AFAAA
:102E500002F314EA0308F6D0D1F80490A9F10103B3
:102E6000022B21D298FAA8F3D0F808A0B3FA83F77E
:102E70007D000BFA05FCD1E902BE2AEA0C0A0BFA26
:102E800005F343EA0A038360D0F804A00EFB04FEB6
:102E90004FF0030B6FEA0C032AEA04044FF0010A17
:102EA00044EA0E04446007E098FAA8F3B3FA83F703
:102EB0007D000BFA05F3DB430C69C6681E40AC408D
:102EC000B9F1020F46EA0406C660B5D15FFA88F48C
:102ED0004FEA1826002C4FF0200496FAA6F604BFFD
:102EE000B6FA86F724240F26D1F814C0BF0050F894
:102EF00004E0BE402EEA06060CFA07F737430751F6
:102F00009AE700BF0020BDE8F08F0000000000003D
:102F100070B50268520631D402684FF6BF7322EAD8
:102F2000030CCC68D1E900E54CEA0E028E682A4316
:102F30000D6922438C692A43CD6922434C691543AC
:102F40000A6A254340F6047315430560456825EA7F
:102F50000303002543EA1443B5EBD62F43EA0603E7
:102F6000436003D1436843F480534360B2F5005F8C
:102F700006D1898C0161002103E000BF012100E03E
:102F80000021C26922F40062C261084670BD0000DF
:102F900080B544F60C2043F20001C2F20100C4F2F5
:102FA0000201016000218180C0E905110121016257
:102FB000FDF72EFE002808BF80BDBDE88040FDF76C
:102FC000D7BD00000000000081B043F63000C4F21D
:102FD0000200016841F4800101600068002100F4F2
:102FE0008000009000984EF60C50CEF20000006871
:102FF0004EF20410CEF2000080F838134FF08051EA
:10300000016001B07047000010B544F6302040F276
:103010003C24C2F20100C2F2000448F2000148F26E
:103020000002C0F2E101C4F2020221600021A1808D
:103030004FF40001026040F2A002816040F2000102
:103040004460C2F20002C2F20001C0E9032140F272
:10305000F4514161FDF748FE08B1FDF789FD04F127
:103060000C003421FDF7A7FA2120A0604FF44000A6
:10307000E06110BD000000002DE9F04F87B043F67D
:1030800030004FF00008C4F2020040F20046CDE9E3
:1030900005880168C4F2020641F00401016001687C
:1030A000002201F0040101910199016841F0200121
:1030B0000160016801F0200101910199016841F06E
:1030C00080010160016801F08001019101990168AE
:1030D00041F001010160016801F0010101910199D4
:1030E000016841F002010160016801F002010191F3
:1030F0000199016841F010010160016801F01001BF
:1031000001910199016841F008010160016801F035
:10311000080101910199016841F0400101600068D6
:1031200044F2810100F04000019001983046FEF722
:1031300013F906F5A0554021002228464FF0400B18
:10314000FEF70AF906F580644FF41071002220465C
:103150004FF41079FEF700F94FF400710122304668
:103160004FF0010AFEF7F8F802AF4FF4005002905A
:103170004FF48810CDE9030820463946FEF710F8D1
:1031800044F281203946CDE9020A3046CDE904886F
:10319000FEF706F84FF4004002904FF44410394611
:1031A000CDE9030806F54060FDF7FAFF28463946E9
:1031B000CDE902BACDE90488FDF7F2FF8020394657
:1031C000CDE902082846CDF81080FDF7E9FF20463A
:1031D0003946CDE9029ACDE90488FDF7E1FF2820C0
:1031E00000210022FEF738F92820FEF721F907B068
:1031F000BDE8F08F000000002DE9F04F91B043F6DC
:10320000300045F20409C4F20200C4F2010901AD24
:103210004FF0020B41694FF0030A41F48011416104
:103220004169002701F4801107910799016841F075
:10323000200101600068294600F0200007900798EF
:10324000802001904CF2FC3009EB0004CDF808B06E
:103250002046CDF80CA0CDE9047705260696FFF7A9
:10326000DBFD4FF480702946CDE9010B2046CDE906
:1032700003A7CDE90576FFF7CFFD204629464FF499
:103280000078CDE9018BCDE903A7CDE90576FFF7FD
:10329000C3FD46F270400122C4F2020001686BF3E4
:1032A0005C610160016862F387110160016821F4CB
:1032B00040310160016821F490710160016821F4DE
:1032C00000710160016841F480610160016821F4CE
:1032D000C0510160016821F4C0410160416921F0E1
:1032E000040141614EF60C504FF40011CEF2000083
:1032F00000684EF25540CEF2000007704EF2081002
:10330000CEF2000001604FF4827008904FF4E0604C
:10331000CDE90907082007A9CDE90D07072010907E
:10332000A9F104000797CDE90B780F97FFF7F0FD9F
:10333000D9F8000020F01000C9F80000D9F800000A
:1033400040F00800C9F8000011B0BDE8F08F00009F
:1033500080B588B044F6E8700021C2F20100079100
:10336000CDE9051102914FF08042026045F207223B
:10337000C0E901210F228161C0E90321FFF798F81C
:1033800008B1FDF7F5FB4FF48050049044F6E87067
:1033900004A9C2F20100FFF737F908B1FDF7E8FB15
:1033A00000200190039044F6E870C2F2010001A9E8
:1033B000FFF716F808B1FDF7DBFB08B080BD000091
:1033C00013F0BAB90000000013F046BA0000000084
:1033D00080B545F2340044F60001C2F20100C4F2A7
:1033E00000010C2201604FF4E13141600021C0E98D
:1033F00002110161C0E90521C0E907114162FFF72F
:10340000B3FA002808BF80BDBDE88040FDF7B0BB1F
:1034100080B544F6E0204FF0A041C2F20100002246
:103420000160062141600221C160026181610121C8
:10343000C0E907124262C0E90B12FEF761F80028EA
:1034400008BF80BDBDE88040FDF792BB00000000D2
:10345000FEE7000000000000FEE70C98279902300C
:103460000C9029980844279028992A980844289075
:10347000704702EB8305013355F8835C8D4270473A
:1034800002EB40008088081A7047406801680968AC
:1034900008470C460146054631F8040F22881044BF
:1034A00020804A88608810446080204608F071B807
:1034B0000090484641463A46334604F02CB84DF851
:1034C00008ED06F02BFC0168C96A5DF808EB0847B7
:1034D000BBF81400BDF80C207047AA88ADF81200A4
:1034E000081AADF81600ADF814202A884046ADF849
:1034F0001020E269704704F14C0629460E2230463E
:10350000FCF7C0BF4DF808ED09F0ADFC28680028B5
:103510005DF808EB7047013090FBF1F24A43121A54
:1035200002F5346213B293FBF1F303FB112110FA9D
:1035300081F0704702928DF80410083000902069E5
:1035400001688A68704704F1200002F0ACBE206870
:103550002946C26E20461047306871682A686B6839
:1035600032607360696028607047B0EE4A0AF0EE1E
:10357000490AB0EE481A7047C01AC968C0EBC000CB
:1035800001EB400070472068297F826B204610477E
:1035900000EE101AB8EEC00A02EE010A05F043B8B8
:1035A000484600212246334604F0CABA8DF81E0070
:1035B0008DF81D0040F20110ADF81F00FF208DF8BE
:1035C0001C007047ADF81620BDF81A204046ADF833
:1035D0001220E2697047602184F8540001EAD000AB
:1035E00094F8591001F09F01084484F8590070477D
:1035F000504639462A464346CDE9006410F00CB8DF
:10360000206861682A686B6822606360696028606E
:10361000704713938DED120ACDED110A8DED101A3E
:10362000CDED0F1A8DED0E2ACDED0D2A8DED0C3A54
:10363000CDED0B3AD0E90010DBF8007050432A9A28
:1036400001EB420101EB40000A9070470FFA89F04C
:103650000C9981424FF000017047DAF80000016BCD
:103660005046084709B0BDE8F08F404604945A46DA
:103670004B46704713B20A9930463A46704713B228
:103680000C9940465246CDE9005470470414DBF8CB
:103690000C50AC427047DBF808200B149342704783
:1036A000CDE90042CDE9023004917047BAF9080033
:1036B000BAF90C10DDE9292370470A9A02320A92FE
:1036C000279A114425912899084426907047064668
:1036D0002998904689462B9ADDF8B0A0B0EE458A2D
:1036E000B0EE649AB0EE44AA13938DED120ACDEDBC
:1036F000110A8DED101ACDED0F1A8DED0E2ACDEDBC
:103700000D2A8DED0C3ACDED0B3AD0E90010504367
:103710002A9A01EB420101EB40000A90DAE900B07D
:10372000041D704780462B98894615932D9BDDF824
:10373000B8B0B0EE458AB0EE649AB0EE44AA8DED12
:10374000140ACDED130A8DED121ACDED111A8DED7F
:10375000102ACDED0F2A8DED0E3ACDED0D3A0B92DC
:10376000D0E90010DBF800A058432C9B01EB43018B
:1037700001EB40000C907047159801381590704788
:103780002899279EDAE902740B143514C1F3033C1F
:10379000C6F30332002E704758432C9B01EB4301C4
:1037A00001EB40000C9070470C9A02320C92299A5F
:1037B000114427912A9908442890704706462B986F
:1037C0008B4615932D9BDDF8B8A0B0EE458AB0EE80
:1037D000649AB0EE44AADDF8BC908DED140ACDEDEC
:1037E000130A8DED121ACDED111A8DED102ACDEDC3
:1037F0000F2A8DED0E3ACDED0D3A0B92D0E9001067
:1038000058432C9B01EB430101EB40000C90DAE99B
:103810000080041D70471C908846484604F029BB70
:103820002068816B2046084720680168496C08477A
:103830002068D0F88010204608476A7BA97902F0FA
:10384000080241EA4211A0EB510084F8550070478C
:1038500001EB810100EB41002146303870475046B2
:103860000FF018BEBFF35F8FC00770472899279EDF
:10387000DBE902270C143514C1F3033CC6F3033310
:10388000002E7047CDE9023004917047284612F0AF
:10389000F7BF284613F024B8BBF90800BBF90C1099
:1038A000DDE929237047B0EE458AB0EE649AB0EEA8
:1038B00044AA13938DED120ACDED110A8DED101A65
:1038C000CDED0F1A8DED0E2ACDED0D2A8DED0C3AB2
:1038D000CDED0B3AD0E900107047B0EE458AB0EE5E
:1038E000649AB0EE44AA15938DED140ACDED130A37
:1038F0008DED121ACDED111A8DED102ACDED0F2A96
:103900008DED0E3ACDED0D3AD0E9001070470B99D0
:1039100020460A9A0129704750432A9A01EB420136
:1039200001EB40000A90704780462B980B9115934D
:103930002D9BDDF8B8A0B0EE458AB0EE649AB0EEEB
:1039400044AA8DED140ACDED130A8DED121ACDEDBA
:10395000111A8DED102ACDED0F2A8DED0E3ACDED19
:103960000D3A0A92D0E9001058432C9B01EB430119
:1039700001EB40000C90DAE900B000F10409704757
:1039800006462068816C20460847012180F86910AE
:1039900080F84B10704720680168896C08472068E0
:1039A000016F20460847A0EB0800A4F85C007047B0
:1039B0000244ADF84820BDF852200A44ADF84A2030
:1039C000BDF9542011FB0200704758432C9B01EBBA
:1039D000430101EB40000C90DBF80800013020F0BF
:1039E000010870472899279CDAE902760B14251400
:1039F000C1F3033CC4F30332002C70478DED140A6D
:103A0000CDED130A8DED121ACDED111A8DED102AA0
:103A1000CDED0F2A8DED0E3ACDED0D3A0B92D0E99A
:103A20000010704700680168C96A084784F0FF0504
:103A3000BBF800700E6800EAD709F820C6F307410A
:103A400000EA1720684311FB040080B25047DDE90B
:103A50002723BAF908000C991B141214704711FBA4
:103A6000040080B25047ADF80E20BDF81220484641
:103A7000ADF80A207047B8F80420ADF80A00081A1B
:103A8000ADF80E003946ADF80C20B8F80020CDF89E
:103A900000A04846ADF808207047BDEC068B01B089
:103AA000BDE8F08F044607F017BF501800B270470A
:103AB00020681C9F416C20460847204605F064BFE3
:103AC00005462068C16F204608471E4437B297FB61
:103AD000F3F707FB13631BB2704713980138139079
:103AE0007047304607F050BB0C9942465B462F9812
:103AF0000690484670470514DAF80C70BD427047CE
:103B0000DAF808300A149A4270472846BBF1010FD0
:103B10000B9AABF1010B70472F980590049448461F
:103B200042465B467047DDE92702BBF908300C9935
:103B3000C2F30334C0F3033512140014CDE9034873
:103B40007047029906460398AAB21FFA88F3CDE996
:103B5000007480B289B20AF099BDBDF81200BDF8B8
:103B60001610B8F806200844B8F8021000B2114444
:103B700009B28142704781462B980B9115932D9B7A
:103B8000DDF8B8A0B0EE458AB0EE649AB0EE44AA73
:103B90008DED140ACDED130A8DED121ACDED111A2B
:103BA0008DED102ACDED0F2A8DED0E3ACDED0D3AAB
:103BB0000A92D0E9001058432C9B01EB430101EB22
:103BC00040000C90DAE9008000F1040B7047206897
:103BD000816A204608470646DBF80000D0F88010CE
:103BE00058460847B4F85C00B0F5004F7047CDE97F
:103BF000008ACDF808907047DDE90EBA02919C4624
:103C00004FF000091099DDE90C4603FB0AB5BAF143
:103C1000000F7047159001390B91704700EAD200F0
:103C2000059001EA122004904946D00008902046F1
:103C30003047DDE92702BBF908300C99C2F30334A1
:103C4000C0F3033512140014039470470244ADF816
:103C50003020BDF83A200A44ADF83220BDF93C20AE
:103C600011FB02007047DDE92523BAF908000A9923
:103C70001B14121470470168896A08470168896B30
:103C80000847119D0E9FDDF8409004914FF0000A07
:103C9000DDF83CB007FB05F0002D7047DDE925029B
:103CA000BBF908300A99121400147047B0EE458A27
:103CB000B0EE649AB0EE44AA8DED140ACDED130A6D
:103CC0008DED121ACDED111A8DED102ACDED0F2AC2
:103CD0008DED0E3ACDED0D3A0A92D0E90010704705
:103CE000606801684A6870470546DBF80000C16FEC
:103CF0005846084780463046394603F0D1BE034651
:103D00001598009021463A461698019048460AF0C8
:103D1000FDBC8046C4F30720059900FB09F015FBA4
:103D2000010080B2384710462346CDE900160F4601
:103D300051465A4634460AF051BB08990646E0B24D
:103D400001F0F801694310FB091080B23847BAF955
:103D50000800BAF90C10DDE927237047B9F1010F0B
:103D6000A9F101097047BBF90800BBF90C10DDE9A6
:103D700027237047BDF94800BDF85020BDF94A100F
:103D800070470246204629460AF04FBCDDE927026B
:103D90000C990FFA88F5C2F3033312147047DDE96A
:103DA0002723BAF908000C99C3F30334C2F303358F
:103DB0001B1412147047B2F900209F18B4F9003098
:103DC0009F4270470088A18D8142704720462A4655
:103DD00043460FF0A2BCCDE90017404649463246A3
:103DE0000AF0FCBA5168CDE90A011646186859680C
:103DF000CDE908017047DDE9251000297047B9F1C8
:103E0000010F0B9AA9F101097047404607F0BCB9B0
:103E1000484607F0B9B913B20C9950464A46CDE965
:103E20000054CDF81080704780F0FF05049815FB12
:103E3000006080B2384701FB0BF110FB0A1080B222
:103E40004847DDF80C8030444618A81800EB4105BF
:103E500070470A98259902300A90279808442590BF
:103E6000269928980844269070473946424633469A
:103E700003F051BBDAF80000816C5046084750430C
:103E80002C9A01EB420101EB40000C90704711FBB2
:103E9000040080B24047BDF92CB03044ADF820009A
:103EA000BDF82A00704711FB060080B2384706EAC9
:103EB000D00401EA102001EA1721694370474846FF
:103EC00041463A465B460AF089BAADF80C20B8F88C
:103ED00000204846ADF808207047B8F80420ADF837
:103EE0000A00081AADF80E007047B9F1FF0F0988F3
:103EF00003FB012200EB4205704711FB0B0080B26F
:103F000040478DED140ACDED130A8DED121ACDED5B
:103F1000111A8DED102ACDED0F2A8DED0E3ACDED53
:103F20000D3A0A92D0E90010DBF8009058432C9B20
:103F300001EB430101EB40000C90704700EE103A9A
:103F400001EE100AB7EE002AB8EE400AB8EE411AA8
:103F500081EE000ABFEE001A30EE010A20EE001AD0
:103F60007047B4EE401AF1EE10FA7047DAF800002C
:103F7000416C504608471E4437B297FBF3F707FBE6
:103F800013637047314605F0C3B817464C78408834
:103F9000214609F02EBB0246404649460AF045BB81
:103FA0000C995A464B4640467047DDE927100029D8
:103FB0007047614310FB081080B22847B0EE458A75
:103FC000B0EE649AB0EE44AA7047704311FB0B0048
:103FD00080B24847BDF93000BDF83820BDF9321035
:103FE0007047294605F094B87047000000000000B3
:103FF0007047000000000000704700000000000053
:10400000F0B581B045F200060546C4F201060C4643
:1040100046F270474FF400713268C4F2020722F092
:10402000400232607068012240F47060706006F5F2
:104030003840FDF791F906F534404FF40071002245
:10404000FDF78AF9386848F21F0120F00100386056
:104050003868CFF6FC71084040F4003040F431502D
:104060003860386800F0C000402805D1FD6006F1D6
:104070000C00B86004E000BFBD6006F10C00F86001
:1040800078684FF6FF7188430121204478603868D2
:1040900040F010003860706840F0020070603068D6
:1040A00040F040003060386840F00100386044F66D
:1040B0000820C2F20100016001B0F0BD0000000064
:1040C000FDF75AB90000000080B594B000200690BA
:1040D000CDE90B00CDE90900CDE90400CDE90200EE
:1040E000FDF742FB43F640000122C4F202000168E2
:1040F00041F080510160006800F08050019001980B
:1041000047F20000C4F20000016862F38F310160E1
:1041100000684FF4800100F440400190019807923C
:104120004FF4A020089002200D900E9104216022EF
:104130000F91CDE91020CDE9121007A8FDF760FF1F
:1041400020B1EFF3108072B6FEE700BFFDF7D0FAA2
:1041500020B1EFF3108072B6FEE700BF0F2002908F
:1041600002200390002004904FF48051CDE9051007
:1041700002A80321FDF7F0FD20B1EFF3108072B625
:10418000FEE700BF14B080BD4EF68850CEF20000AE
:10419000016841F4700101607047000000000000F8
:1041A00044F6E870C2F20100FEF702BB0000000016
:1041B00010B540F6FF3E40F2004CC4F2000E03681A
:1041C0007045C4F2010C27DCB0F1804F2CD040F2D6
:1041D0000042C4F20002904226D040F60002C4F22F
:1041E0000002904220D041F6FF72C4F200029042D9
:1041F00024DC704536DCB0F1804F59D040F20042EB
:10420000C4F20002904253D040F60002C4F2000211
:1042100090424DD050E000BF40F60042C4F2000290
:10422000904218BF60455BD123F070024B68134386
:1042300041F6FF72C4F200029042DADD43F6FF72EB
:10424000C4F20102904221DC42F20002C4F20002F8
:1042500090422DD00022C4F20102904228D0604545
:1042600026D029E040F60042C4F2000290421FD05E
:1042700041F60002C4F20002904219D041F6004219
:10428000C4F20002904213D016E000BF44F20002D4
:10429000C4F2010290420BD044F60002C4F20102C3
:1042A000904205D044F20042C4F20102904203D190
:1042B00023F44072CB68134323F080024B69D1F89A
:1042C00000E01A438C68026040F48062C462C0F867
:1042D00028E0624504BF096901630121416110BD05
:1042E0000022C4F2010290429ED07CE70000000050
:1042F000416ACA070CD18A0715D44A071ED40A0797
:1043000027D4CA0630D48A0639D44A0655D541E0A6
:104310000268D0F828C0536823F4003343EA0C0342
:1043200053608A07E9D50268D0F82CC0536823F49B
:10433000803343EA0C0353604A07E0D50268D0F8A3
:1043400030C0536823F4802343EA0C0353600A0708
:10435000D7D50268D0F834C0536823F4004343EA49
:104360000C035360CA06CED50268D0F838C09368F3
:1043700023F4805343EA0C0393608A06C5D5026890
:10438000D0F83CC0936823F4005343EA0C039360D5
:104390004A0612D50268D0F840C05368BCF5801FA9
:1043A00023F4801343EA0C03536006D1536823F4CB
:1043B000C00C436C43EA0C035360090658BF7047B6
:1043C0000168806C4A6822F40022104348607047FC
:1043D00070B506460168806846F6F315D6E90332E3
:1043E00002437069D6F81CC00C68CEF6FF75104306
:1043F00004EA0502104340EA0C000860486820F413
:10440000405018434860B06947F2FF73326AC4F203
:10441000000310438A6822F43062994240EA0200A5
:104420004FF01002886019DC44F6FF30C4F200003F
:1044300081422DDC44F20040C4F2000081424DD0A4
:1044400044F60000C4F20000814271D143F69000AE
:10445000C4F202000068010956E000BF40F6FF7098
:10446000C4F20100814227DC47F60000C4F20000DC
:1044700081423BD047F60040C4F20000814257D150
:1044800043F69000C4F202000068810B3CE000BFDC
:1044900044F60040C4F2000081422FD045F20000F3
:1044A000C4F20000814243D143F69000C4F20200FE
:1044B0000068010A28E000BF41F20040C4F2010098
:1044C000814227D041F20000C4F2010081422FD185
:1044D00043F69000C4F20200016821E043F6900028
:1044E000C4F20200006881080EE000BF43F69000AD
:1044F000C4F202000068010B06E000BF43F6900022
:10450000C4F202000068810947F68C32C0F601024D
:104510000AE000BF43F69000C4F202000068810A7E
:1045200047F67C32C0F6010201F0030052F8202069
:1045300042F20040BCF5004FC0F2F4000ED1082A50
:104540004FF0010122D8DFE802F0051929211D21D1
:1045500021212700FDF7F4FC00BB16E0082A4FF0EC
:10456000010113D8DFE802F0062E381232121212BF
:10457000360000BFFDF7E4FC70BB3AE0FDF7F4FC49
:1045800060B902E0FDF704FD40B900210020C6E952
:104590001A00084670BD00BF4FF4004071684A0819
:1045A00002EB40004FF6EF72B0FBF1F0A0F110010A
:1045B000914225D84FF6F0710140C0F34200084403
:1045C00015E000BFFDF7D0FC30B912E0FDF7E0FCCC
:1045D00010B90EE04FF4004071684FF6EF7200EB37
:1045E0005100B0FBF1F0A0F11001914208D8316800
:1045F000C86000210020C6E91A00084670BD00BF4F
:1046000001210020C6E91A00084670BD0000000024
:104610002DE9F041044600680D46C7693940491B41
:10462000B1FA81F14909914240F0A580DDF8188086
:10463000B8F1000F2AD0164618F1010140F084802D
:10464000C1692940491BB1FA81F14909B14240F0E1
:104650009280C1692940491BB1FA81F14909B142EF
:1046600001BFC1692940491BB1FA81F104BF490961
:10467000B14240F08080C1692940491BB1FA81F103
:104680004909B142DCD00020BDE8F081FCF76CFEA6
:10469000206850E8000F216820F4D07041E8000243
:1046A000F2B1206850E8000F216820F4D07041E892
:1046B0000002002A1FBF206850E8000F216820F484
:1046C000D0701CBF41E80002002A09D0206850E8E1
:1046D000000F216820F4D07041E80002002AD7D1F1
:1046E000206850E8020F216820F0010041E8020232
:1046F000F2B1206850E8020F216820F0010041E883
:104700000202002A1FBF206850E8020F216820F033
:1047100001001CBF41E80202002A09D0206850E8CD
:10472000020F216820F0010041E80202002AD7D1DF
:104730002020E06704F1800020210160002084F83F
:1047400078000320BDE8F0811F4600BFFCF70CFE97
:10475000C01B40459CD820680168490744BFC16917
:104760005FEA01510AD4C0692840401BB0FA80F0CA
:104770004009B042EAD00020BDE8F0814FF400616A
:104780000162206850E8000F216820F4D07041E8F1
:104790000002F2B1206850E8000F216820F4D070C8
:1047A00041E80002002A1FBF206850E8000F21687E
:1047B00020F4D0701CBF41E80002002A09D0206814
:1047C00050E8000F216820F4D07041E80002002A70
:1047D000D7D1206850E8020F216820F0010041E89D
:1047E0000202F2B1206850E8020F216820F00100B7
:1047F00041E80202002A1FBF206850E8020F21682A
:1048000020F001001CBF41E80202002A09D0206804
:1048100050E8020F216820F0010041E80202002A5E
:10482000D7D12020E067C4F8800004F1840083E73A
:1048300080B582B00699012940F64051DDF810C0DC
:10484000C0F2030172D1826B4FF6BF7322F4803243
:104850008263C268CFF6BD73DDF834E01A40C260EF
:10486000BEF1010FC26822F44012C26003D1C268D7
:1048700042F48012C26000220092009A013200923B
:10488000009A8A4200F2AA800269002A1ED4009A85
:1048900001320092009A8A4200F2A0800269002A46
:1048A00014D4009A01320092009A8A4200F2968053
:1048B0000269002A0AD4009A01320092009A8A42C0
:1048C00000F28C800269B2F1FF3FD6DC0022009238
:1048D000026942F001020261009A01320092009ADC
:1048E0008A427BD80269D2071AD0009A013200921C
:1048F000009A8A4272D80269D20711D0009A013216
:104900000092009A8A4269D80269D20708D0009AB8
:1049100001320092009A8A4260D80269D207DBD144
:104920000021BCF1010F6FD166E000BFC26842F008
:104930004002C26000220192019A01320192019A62
:104940008A4251D80269002A1BD4019A013201928D
:10495000019A8A4248D80269002A12D4019A013287
:104960000192019A8A423FD80269002A09D4019A29
:1049700001320192019A8A4236D80269B2F1FF3FB0
:10498000DADC00220192026942F001020261019A1E
:1049900001320192019A8A4226D80269D2071AD0BE
:1049A000019A01320192019A8A421DD80269D20706
:1049B00011D0019A01320192019A8A4214D80269F7
:1049C000D20708D0019A01320192019A8A420BD88B
:1049D0000269D207DBD1002107E000BF0321BCF14F
:1049E000010F11D108E000BF0321826B42F4803235
:1049F0008263BCF1010F07D1826842F00602826037
:104A0000826842F020028260084602B080BD000049
:104A10000146D0F8000E20F00300C1F8000E00207F
:104A2000D1F8042842F00202C1F8042870470000BF
:104A30002DE9F04F83B0DDF84C800E9FB8F1000FE8
:104A40004FF00002C0F80421C0F80821C0F80C2182
:104A5000C0F81021C0F81421C0F81821C0F81C219A
:104A6000C0F82021C0F82421C0F82821C0F82C214A
:104A7000C0F83021C0F83421C0F83821C0F83C21FA
:104A800006D0826B00F5006B42F40012826313E0E3
:104A9000D0F8042800F5006B42F00202C0F80428A8
:104AA000826B22F400128263026842F040020260CC
:104AB000066846F0800606600026C0F8006E012FEA
:104AC000D0F80078C0F8007806D1DBF80070002B31
:104AD00018BF47F0010703E0DBF8003043F003079D
:104AE00040F64055DDF83CE0DDF83090C0F20305BB
:104AF000C0F8007800230193019B01330193019BCF
:104B0000AB4249D80369002B1BD4019B01330193AD
:104B1000019BAB4240D80369002B12D4019B0133A7
:104B20000193019BAB4237D80369002B09D4019B49
:104B300001330193019BAB422ED80369B3F1FF3FD0
:104B4000DADC002301934FF484630361019B01339A
:104B50000193019BAB421FD803699B061AD5019BA9
:104B600001330193019BAB4216D803699B0611D513
:104B7000019B01330193019BAB420DD803699B0656
:104B800008D5019B01330193019BAB4204D8036913
:104B90009B06DBD4002400E0012400230293029B47
:104BA00001330293029BAB4248D80369002B1BD40C
:104BB000029B01330293029BAB423FD80369002B57
:104BC00012D4029B01330293029BAB4236D8036995
:104BD000002B09D4029B01330293029BAB422DD8D8
:104BE0000369B3F1FF3FDADC002302931023036172
:104BF000029B01330293029BAB421FD80369DB0681
:104C00001DD5029B01330293029BAB4216D8036968
:104C1000DB0614D5029B01330293029BAB420DD8F5
:104C20000369DB060BD5029B01330293029BAB4267
:104C300004D80369DB06DBD401E000BF01244FF098
:104C4000000A0029CBF810A0CBF814A0CBF81CA0C8
:104C500000F00981D0F800394FF000624E1E4FF687
:104C60007F3702EA1313C0F80039C0F810A9C0F862
:104C700008797CD08B1E06F00309032B7246009442
:104C800004D22024B9F1000F3FD166E026F00304DE
:104C900000234FF0904E4FF67F384FF0000C00BFCE
:104CA00000EB0C05043C0CF1800CD5F820790EEAE1
:104CB000E777C5F82079C5F83039C5F82889D5F8DF
:104CC00040790EEAE777C5F84079C5F85039C5F85C
:104CD0004889D5F860790EEAE777C5F86079C5F8B4
:104CE0007039C5F86889D5F880790EEAE777C5F894
:104CF0008079C5F89039C5F88889D1D10CF12004A4
:104D0000DDF84C80B9F1000F27D000F510674FF0A7
:104D1000904C3B194FF0000E3D59B9F1010F0CEAD0
:104D2000E5753D514FF67F34C3F810E09C6014D018
:104D30001D6AB9F1020F0CEAE5771F62C3F830E093
:104D40009C620AD01F6C4FF0904505EAE7771F641C
:104D500000271F654FF67F379F6400299646DDF8D0
:104D600030904FF00062009C4FF67F377BD0D0F838
:104D7000003B002E02EA1313C0F8003B4FF0000383
:104D8000C0F8103BC0F8087B6DD0023906F0030C68
:104D9000032905D22023BCF1000F3ED163E000BF00
:104DA000009426F0030400234FF090474FF67F361F
:104DB000002100BF4518043C01F18001D5F8202BEB
:104DC00007EAE272C5F8202BC5F8303BC5F8286B1E
:104DD000D5F8402B07EAE272C5F8402BC5F8503BE6
:104DE000C5F8486BD5F8602B07EAE272C5F8602B6E
:104DF000C5F8703BC5F8686BD5F8802B07EAE272FE
:104E0000C5F8802BC5F8903BC5F8886BD2D101F16D
:104E10002003009CBCF1000F25D000F530624FF05C
:104E20009047D118BCF1010FD65807EAE676D65064
:104E30004FF000034FF67F360B618E6013D00A6A85
:104E4000BCF1020F07EAE2720A620B638E620AD0BB
:104E50000A6C4FF0904303EAE2720A6400220A658A
:104E60004FF67F328A64DBF81010B9F1000F21F49D
:104E70008071CBF81010C0F818A06FF0804141612C
:104E800003D1816941F01001816143F6000281691B
:104E9000C8F23C02BEF1000F41EA0201816103D079
:104EA000816941F008018161B8F1010F05D1816983
:104EB00041F0804141F004018161204603B0BDE82A
:104EC000F08F00000000000001468268002022F000
:104ED00001028A6070470000B0B50446C06820F047
:104EE000C040E06091B1012926D1E068002540F082
:104EF0000050E0600120FBF7E3FE6069C00705F1A8
:104F0000010014D1312D0546F4D310E0E0680025EE
:104F100040F08040E06000BF0120FBF7D1FE6069F7
:104F2000C00705F1010002D0312D0546F4D3323817
:104F3000B0FA80F04009B0BD0120B0BD0000000013
:104F4000FEE7000000000000B0B540F27C2546F608
:104F50004040C2F20005C0F60100083045F8040FD9
:104F600005F10804204601F01BF943F20010C2F2DB
:104F700001000CF0B3FB46F658414FF48072C0F6C6
:104F800001014FF4A0730831696043F28401C2F259
:104F90000101A1F848200122C1E901400020C0F22E
:104FA0000012C1E9192040F20112A1F8772043F262
:104FB000AC12C862C2F201020886C1E904001160A5
:104FC00040F2E032C2F20002A1F86200C1E906003C
:104FD000138040F2E432C2F20002C1F85E00C1E97F
:104FE0000800138040F2E232C2F20002F023C1F85E
:104FF0002700138040F2E632C2F20002C1F85A00E4
:10500000C1E90E00138040F2DD32C2F20002C1F8A5
:105010005600C1E91000C1F85200C1F84E00C1F8B5
:105020004A0081F86C000867C1F87300107081F8BD
:10503000340046F65020C0F60100CD60083008600C
:10504000B0BD00000000000040F25C4147F24C108F
:10505000C2F2000142F60842C0F60100C0F20102AD
:1050600008300860881800238B504FF0FF32C0E9E9
:105070000133C0E90333436142F62040C0F201002E
:105080000A5042F62440C0F201000A500B714B71E5
:105090008B7170470000000010B500F051F845F228
:1050A000C004C2F20104206000F08AF8606000F0E1
:1050B00007F8A06000F0C4F8E06010BD0000000038
:1050C00070B58CB040F2D425C2F200052878BFF349
:1050D0005F8FC00702D0281D0CB070BD40F2D426EF
:1050E000C2F20006304611F0CBFB0028F3D00020BE
:1050F0000A90CDE908000090042101910121CDE939
:1051000002104CF2DC1104904CF2CC10C0F60501F8
:10511000C0F605000122CDE905104CF2E801301D72
:10512000C0F605010A233F24079402F085FF3046AC
:1051300011F0D6FB281D0CB070BD0000000000006F
:1051400070B58CB040F20035C2F200052878BFF38C
:105150005F8FC00702D0281D0CB070BD40F2003632
:10516000C2F20006304611F08BFB0028F3D000207D
:105170000A90CDE908000090042101910121CDE9B8
:1051800002104CF2E01104904CF2D010C0F6050170
:10519000C0F605000822CDE905104CF2F801301DDB
:1051A000C0F6050114233F24079402F045FF304662
:1051B00011F096FB281D0CB070BD0000000000002F
:1051C00070B58CB040F22C35C2F200052878BFF3E0
:1051D0005F8FC00702D0281D0CB070BD40F22C3686
:1051E000C2F20006304611F04BFB0028F3D000203D
:1051F0000A90CDE908000090042101910121CDE938
:1052000002104CF2E41104904CF2D410C0F60501E7
:10521000C0F605000122CDE905104CF26811301DE1
:10522000C0F6050128233F24079402F005FF30460D
:1052300011F056FB281D0CB070BD000000000000EE
:1052400070B58CB040F25835C2F200052878BFF333
:105250005F8FC00702D0281D0CB070BD40F25836D9
:10526000C2F20006304611F00BFB0028F3D00020FC
:105270000A90CDE908000090042001900120CDE9BA
:1052800002004CF2E81104904CF2D810C0F605016F
:10529000C0F605000622CDE905104CF27811301D4C
:1052A000C0F6050114233F24079402F0C5FE3046E2
:1052B00011F016FB281D0CB070BD000000000000AE
:1052C00000F0C6B8000000007047000000000000B9
:1052D00080B500F0D5F846F6E811C0F601010831B6
:1052E000016080BD0000000011F08EB900000000D8
:1052F00000F0F2B90000000070470000000000005C
:10530000B0B540F220250446C2F200059830298845
:1053100001F0D6FF298804F5BE7002F004FF40F2C8
:10532000382104F55E70C2F2000105A20B6810215D
:1053300007F0A2FD04F54B70BDE8B0400EF0AABA2C
:10534000257500000000000080B500F0C9F946F6A0
:105350001C21C0F601010831016080BD0000000081
:1053600011F052B90000000000F0F2BC0000000093
:1053700000F0F2BC0000000000F07ABD0000000068
:1053800000F07ABD0000000004F030BA0000000018
:1053900000F0FABD0000000000F0FABD00000000BF
:1053A00000F0FABD0000000000F0FABD00000000AF
:1053B00000F0FABD0000000000F006BE0000000092
:1053C00011F022B900000000B0B5044646F62831BD
:1053D0002546C0F6010101F1080045F8140B41F221
:1053E0008C60204403F083FB04F12C0003F07FFB6E
:1053F000284603F07CFB2046BDE8B04011F004B91C
:10540000B0B5044646F628312546C0F6010101F143
:10541000080045F8140B41F28C60204403F067FB50
:1054200004F12C0003F063FB284603F060FB2046E8
:10543000B0BD00000000000046F65C10C0F60100A0
:1054400070470000000000000720704700000000C7
:10545000704700000000000010B50446D0F8380185
:105460000130B0F5FA7FC4F8380118BF10BD01F063
:105470002BF800F0F9FD0020C4F8380110BD000041
:105480002DE9F04F83B0044606F0D0FE46F63C30DE
:105490002221C0F601004FF0000B0830206004F11B
:1054A0004400C4F83CB0FBF786F847F23440A0460D
:1054B000C0F60100222100F1080604F170004FF649
:1054C0000175A4F8655048F8406FC4F868B0FBF760
:1054D00072F8A24604F19C002221A4F891504AF8E7
:1054E0006C6FC4F894B0FBF766F8274604F1C80067
:1054F0002221A4F8BD5047F8986FC4F8C0B0FBF75C
:105500005AF8A4F8E950254604F1F400222145F8A0
:10551000C46FC4F8ECB0FBF74EF847F68C01A14617
:10552000C0F60101012084F8150101F1080049F8D5
:10553000F00F47F6B420C0F601004FF0FF3100F144
:105540000806FF20C4F8260147F23440C0F60100E7
:10555000A4F81C11C4E94BB1826B00214046C4F889
:105560001861C4F820B1A4F824B1C4E94DBB904738
:10557000D8F800000021426B40469047D8F8000060
:105580004FF4A071826B40469047D8F80000F0219C
:10559000C26B40469047DAF800004FF07F41A166A9
:1055A0000121026B50469047DAF800000021426B5F
:1055B00050469047DAF800006821826B50469047C9
:1055C000DAF80000F021C26B5046904741F6E61031
:1055D0003968CFF61970C4F894000A6BD8213846A0
:1055E000904738680021426B3846904738686921F7
:1055F000826B384690473868F021C26B3846904736
:1056000043F234402968CFF6EB70C4F8C0000A6B4F
:1056100069212846904728680021426B2846904718
:1056200028686F21826B284690472868F021C26B5A
:1056300028469047D9F800004FF0FF31C4F8EC102D
:105640007E21026B48469047D9F800006C21426BDE
:105650004846904740F29430A4F824B1CFF60D703C
:10566000C4F82001D9F800004946D0F884206846E3
:1056700090470098C4F82C010198C4F830010298B2
:10568000C4F834010220ADF804006946484600968B
:105690000CF073F8261D414630460CF05DFA30469A
:1056A00051460CF059FA304639460CF055FA30465E
:1056B00029460CF051FA304649460CF04DFA204686
:1056C00003B0BDE8F08F000010F09EBF00000000A6
:1056D000704700000000000070470000000000005C
:1056E0002DE9F04F8DB0804606F0A0FD46F67030F3
:1056F0002221C0F6010000240830C8F8000008F19B
:105700004400C8F83C40FAF756FF47F2344041469F
:10571000C0F60100C8F86840083041F8400F069113
:105720004FF60170A8F8650008F1700022214FF0D3
:10573000FF35ADF82850FAF73EFF47F29C40464649
:10574000C0F601000AA900F1080446F86C4F0120D8
:1057500086F82500FF2086F8280030464FF0010B20
:10576000F584FF2705F068FF06F12C00059001F095
:1057700031FE06F58879484602F0FCFC06F5047017
:105780000AA90790ADF8285003F0CAFB06F510707F
:10579000222106F50F7AADF82850FAF70CFF0AA976
:1057A000504686F861B2C6F83C42A6F8625286F8C6
:1057B000647205F041FF06F51B70222106F51A7B85
:1057C000ADF82850FAF7F7FE012086F88D020AA9F5
:1057D0005846C6F86842A6F88E5286F8907205F0D0
:1057E0002BFF06F52670222106F525770897ADF8E0
:1057F0002850FAF7E0FE012086F8B902FF2086F86B
:10580000BC020AA93846C6F89442FF24A6F8BA5248
:105810004F4605F011FF06F53070099006F531701E
:105820002221FAF7C8FE012086F8E50247F6B420E7
:105830000021C0F60100C6F8F01208300390C6F847
:10584000E80247F2F410C0F60100A6F8F41208309E
:10585000C6F8C002C6E9BF15C6E9C11106F54B700E
:105860004FF49651A6F8EC52DDF81890C6F8F642BF
:105870004446DDF81480002503F0C8FBD9F8000089
:105880000021026B48469047D9F800000021426B86
:1058900048469047D9F800004FF4A071826B484603
:1058A0009047D9F80000F021C26B48469047306815
:1058B0004FF07F41A1660021026B30460294904771
:1058C00030680021426B304690470AA93046ADF857
:1058D0002850002405F0B0FEF06A4421026B4046D7
:1058E0009047F06AD421426B404690470C200C212F
:1058F0000422B42300904046042501F0BDFC0021A1
:105900006422002340460094002403F037FD002168
:10591000404603F057FC0AA94046ADF8285003F072
:10592000C2FC49F2FF714046CFF6007101F0C5FCA0
:105930000021404601F0C4FCD6F810011021026B92
:1059400038469047D6F810014421426B38469047BC
:1059500000210022682368200090384602F0C2FB34
:105960000021642200233846009403F007FD34210F
:105970003422384602F0F5FB3221384602F0F6FBBD
:105980000021384602F081FB00214FF4B472384602
:1059900002F082FB0320ADF828000AA9384603F084
:1059A00082FC079D0520ADF828000AA9284603F0CF
:1059B00071FA3846294602F065FB0021384602F0AC
:1059C000B2FBD6F83C024FF48971026B5046904707
:1059D000D6F83C021121426B504690470220ADF8A8
:1059E00028000AA95046CDF810A005F025FED6F8EB
:1059F0006802A021026B58469047D6F868028021C1
:105A0000426B584690470120ADF828000AA9584635
:105A1000CDF81CB005F010FED6F89402089DA02128
:105A2000026B28469047D6F894024421426B2846E0
:105A300090470620ADF828000AA92846AB4605F095
:105A4000FBFDD6F8C002099D1C21026B2846904739
:105A5000D6F8C0021621426B28469047D6F8C002FD
:105A60009821826B28469047D6F8C0021821C26B55
:105A7000284690474FF07F40C6F8F002D6F8C002A3
:105A8000A6F8F4422946AA46D0F884200AA89047EE
:105A900043F2B412C2F20102DDE90A01C6F8FC02C7
:105AA00010680028C6F800130C98C6F8040347D005
:105AB00043F2B810C2F20100008800284CD043F233
:105AC000C010029CC2F20100002104F55E7500685E
:105AD0000DF012F9034626A21021284607F0CCF952
